{
  "_format": "hh-sol-artifact-1",
  "contractName": "Bank",
  "sourceName": "contracts/Bank.sol",
  "abi": [
    {
      "inputs": [
        {
          "internalType": "uint256",
          "name": "_t",
          "type": "uint256"
        },
        {
          "internalType": "contract IERC20",
          "name": "_erc20Token",
          "type": "address"
        }
      ],
      "stateMutability": "nonpayable",
      "type": "constructor"
    },
    {
      "anonymous": false,
      "inputs": [
        {
          "indexed": true,
          "internalType": "address",
          "name": "previousOwner",
          "type": "address"
        },
        {
          "indexed": true,
          "internalType": "address",
          "name": "newOwner",
          "type": "address"
        }
      ],
      "name": "OwnershipTransferred",
      "type": "event"
    },
    {
      "anonymous": false,
      "inputs": [
        {
          "indexed": false,
          "internalType": "uint256",
          "name": "value",
          "type": "uint256"
        }
      ],
      "name": "PoolsEmptied",
      "type": "event"
    },
    {
      "anonymous": false,
      "inputs": [
        {
          "indexed": false,
          "internalType": "uint256",
          "name": "value",
          "type": "uint256"
        }
      ],
      "name": "RewardSupplied",
      "type": "event"
    },
    {
      "anonymous": false,
      "inputs": [
        {
          "indexed": false,
          "internalType": "address",
          "name": "sender",
          "type": "address"
        },
        {
          "indexed": false,
          "internalType": "uint256",
          "name": "value",
          "type": "uint256"
        }
      ],
      "name": "TokensDeposited",
      "type": "event"
    },
    {
      "anonymous": false,
      "inputs": [
        {
          "indexed": false,
          "internalType": "address",
          "name": "sender",
          "type": "address"
        },
        {
          "indexed": false,
          "internalType": "uint256",
          "name": "value",
          "type": "uint256"
        },
        {
          "indexed": false,
          "internalType": "uint256",
          "name": "reward",
          "type": "uint256"
        }
      ],
      "name": "TokensWithdrew",
      "type": "event"
    },
    {
      "inputs": [
        {
          "internalType": "uint256",
          "name": "value",
          "type": "uint256"
        }
      ],
      "name": "deposit",
      "outputs": [
        {
          "internalType": "bool",
          "name": "",
          "type": "bool"
        }
      ],
      "stateMutability": "nonpayable",
      "type": "function"
    },
    {
      "inputs": [
        {
          "internalType": "address",
          "name": "",
          "type": "address"
        }
      ],
      "name": "deposits",
      "outputs": [
        {
          "internalType": "uint256",
          "name": "",
          "type": "uint256"
        }
      ],
      "stateMutability": "view",
      "type": "function"
    },
    {
      "inputs": [],
      "name": "emptyPools",
      "outputs": [
        {
          "internalType": "bool",
          "name": "",
          "type": "bool"
        }
      ],
      "stateMutability": "nonpayable",
      "type": "function"
    },
    {
      "inputs": [],
      "name": "erc20Token",
      "outputs": [
        {
          "internalType": "contract IERC20",
          "name": "",
          "type": "address"
        }
      ],
      "stateMutability": "view",
      "type": "function"
    },
    {
      "inputs": [],
      "name": "owner",
      "outputs": [
        {
          "internalType": "address",
          "name": "",
          "type": "address"
        }
      ],
      "stateMutability": "view",
      "type": "function"
    },
    {
      "inputs": [],
      "name": "renounceOwnership",
      "outputs": [],
      "stateMutability": "nonpayable",
      "type": "function"
    },
    {
      "inputs": [],
      "name": "rewardPool",
      "outputs": [
        {
          "internalType": "uint256",
          "name": "",
          "type": "uint256"
        }
      ],
      "stateMutability": "view",
      "type": "function"
    },
    {
      "inputs": [
        {
          "internalType": "uint256",
          "name": "",
          "type": "uint256"
        }
      ],
      "name": "rewardPools",
      "outputs": [
        {
          "internalType": "uint256",
          "name": "",
          "type": "uint256"
        }
      ],
      "stateMutability": "view",
      "type": "function"
    },
    {
      "inputs": [],
      "name": "round",
      "outputs": [
        {
          "internalType": "uint8",
          "name": "",
          "type": "uint8"
        }
      ],
      "stateMutability": "view",
      "type": "function"
    },
    {
      "inputs": [
        {
          "internalType": "uint256",
          "name": "value",
          "type": "uint256"
        }
      ],
      "name": "supplyReward",
      "outputs": [
        {
          "internalType": "bool",
          "name": "",
          "type": "bool"
        }
      ],
      "stateMutability": "nonpayable",
      "type": "function"
    },
    {
      "inputs": [],
      "name": "t",
      "outputs": [
        {
          "internalType": "uint256",
          "name": "",
          "type": "uint256"
        }
      ],
      "stateMutability": "view",
      "type": "function"
    },
    {
      "inputs": [],
      "name": "t0",
      "outputs": [
        {
          "internalType": "uint256",
          "name": "",
          "type": "uint256"
        }
      ],
      "stateMutability": "view",
      "type": "function"
    },
    {
      "inputs": [],
      "name": "totalDeposit",
      "outputs": [
        {
          "internalType": "uint256",
          "name": "",
          "type": "uint256"
        }
      ],
      "stateMutability": "view",
      "type": "function"
    },
    {
      "inputs": [
        {
          "internalType": "address",
          "name": "newOwner",
          "type": "address"
        }
      ],
      "name": "transferOwnership",
      "outputs": [],
      "stateMutability": "nonpayable",
      "type": "function"
    },
    {
      "inputs": [],
      "name": "withdraw",
      "outputs": [
        {
          "internalType": "bool",
          "name": "",
          "type": "bool"
        }
      ],
      "stateMutability": "nonpayable",
      "type": "function"
    }
  ],
  "bytecode": "0x60e06040523480156200001157600080fd5b5060405162001d4838038062001d48833981810160405281019062000037919062000228565b620000576200004b620000a360201b60201c565b620000ab60201b60201c565b8073ffffffffffffffffffffffffffffffffffffffff1660808173ffffffffffffffffffffffffffffffffffffffff16815250504260c081815250508160a0818152505050506200026f565b600033905090565b60008060009054906101000a900473ffffffffffffffffffffffffffffffffffffffff169050816000806101000a81548173ffffffffffffffffffffffffffffffffffffffff021916908373ffffffffffffffffffffffffffffffffffffffff1602179055508173ffffffffffffffffffffffffffffffffffffffff168173ffffffffffffffffffffffffffffffffffffffff167f8be0079c531659141344cd1fd0a4f28419497f9722a3daafe3b4186f6b6457e060405160405180910390a35050565b600080fd5b6000819050919050565b620001898162000174565b81146200019557600080fd5b50565b600081519050620001a9816200017e565b92915050565b600073ffffffffffffffffffffffffffffffffffffffff82169050919050565b6000620001dc82620001af565b9050919050565b6000620001f082620001cf565b9050919050565b6200020281620001e3565b81146200020e57600080fd5b50565b6000815190506200022281620001f7565b92915050565b600080604083850312156200024257620002416200016f565b5b6000620002528582860162000198565b9250506020620002658582860162000211565b9150509250929050565b60805160a05160c051611a4762000301600039600081816103230152818161039c015281816103f60152818161048e015281816109e301528181610ca30152610e620152600081816102f301528181610461015281816109b601528181610c5c0152610c820152600081816106710152818161076a01528181610b1701528181610c0f0152610d100152611a476000f3fe608060405234801561001057600080fd5b50600436106100f55760003560e01c80638a13eea711610097578063c116690c11610066578063c116690c14610266578063f2fde38b14610284578063f6153ccd146102a0578063fc7e286d146102be576100f5565b80638a13eea7146101dc5780638da5cb5b146101fa57806392d0d15314610218578063b6b55f2514610236576100f5565b806346abf391116100d357806346abf39114610166578063529838f31461019657806366666aa9146101b4578063715018a6146101d2576100f5565b8063146ca531146100fa5780633ccfd60b146101185780633d97e28714610136575b600080fd5b6101026102ee565b60405161010f91906111ea565b60405180910390f35b61012061045d565b60405161012d9190611220565b60405180910390f35b610150600480360381019061014b9190611276565b61075e565b60405161015d9190611220565b60405180910390f35b610180600480360381019061017b9190611276565b61094a565b60405161018d91906112b2565b60405180910390f35b61019e610965565b6040516101ab9190611220565b60405180910390f35b6101bc610bf3565b6040516101c991906112b2565b60405180910390f35b6101da610bf9565b005b6101e4610c0d565b6040516101f1919061134c565b60405180910390f35b610202610c31565b60405161020f9190611388565b60405180910390f35b610220610c5a565b60405161022d91906112b2565b60405180910390f35b610250600480360381019061024b9190611276565b610c7e565b60405161025d9190611220565b60405180910390f35b61026e610e60565b60405161027b91906112b2565b60405180910390f35b61029e600480360381019061029991906113cf565b610e84565b005b6102a8610f07565b6040516102b591906112b2565b60405180910390f35b6102d860048036038101906102d391906113cf565b610f0d565b6040516102e591906112b2565b60405180910390f35b6000807f00000000000000000000000000000000000000000000000000000000000000009050806002610321919061142b565b7f000000000000000000000000000000000000000000000000000000000000000061034c9190611485565b421161038d576040517f08c379a000000000000000000000000000000000000000000000000000000000815260040161038490611538565b60405180910390fd5b80600461039a919061142b565b7f00000000000000000000000000000000000000000000000000000000000000006103c59190611485565b4211156103e7576002808111156103df576103de611558565b5b91505061045a565b8060036103f4919061142b565b7f000000000000000000000000000000000000000000000000000000000000000061041f9190611485565b421115610442576001600281111561043a57610439611558565b5b91505061045a565b6000600281111561045657610455611558565b5b9150505b90565b60007f0000000000000000000000000000000000000000000000000000000000000000600261048c919061142b565b7f00000000000000000000000000000000000000000000000000000000000000006104b79190611485565b42116104f8576040517f08c379a00000000000000000000000000000000000000000000000000000000081526004016104ef906115d3565b60405180910390fd5b600080600660003373ffffffffffffffffffffffffffffffffffffffff1673ffffffffffffffffffffffffffffffffffffffff168152602001908152602001600020549050600061054833610f25565b90506000600660003373ffffffffffffffffffffffffffffffffffffffff1673ffffffffffffffffffffffffffffffffffffffff1681526020019081526020016000208190555081600560008282546105a191906115f3565b9250508190555060005b60038160ff16101561066e57818160ff16600381106105cd576105cc611627565b5b6020020151600160008282546105e391906115f3565b92505081905550818160ff1660038110610600576105ff611627565b5b6020020151846106109190611485565b9350818160ff166003811061062857610627611627565b5b602002015160028260ff166003811061064457610643611627565b5b01600082825461065491906115f3565b92505081905550808061066690611656565b9150506105ab565b507f000000000000000000000000000000000000000000000000000000000000000073ffffffffffffffffffffffffffffffffffffffff1663a9059cbb3385856106b89190611485565b6040518363ffffffff1660e01b81526004016106d592919061167f565b6020604051808303816000875af11580156106f4573d6000803e3d6000fd5b505050506040513d601f19601f8201168201806040525081019061071891906116d4565b507fbe950d70b1d347ee0119dc4202b5bca7157b4e7f8551399dae90bb88469916f533838560405161074c93929190611701565b60405180910390a16001935050505090565b600061076861101e565b7f000000000000000000000000000000000000000000000000000000000000000073ffffffffffffffffffffffffffffffffffffffff166323b872dd3330856040518463ffffffff1660e01b81526004016107c593929190611738565b6020604051808303816000875af11580156107e4573d6000803e3d6000fd5b505050506040513d601f19601f8201168201806040525081019061080891906116d4565b50816001600082825461081b9190611485565b92505081905550600061083860148461109c90919063ffffffff16565b90506000610850601e8561109c90919063ffffffff16565b9050600061086860328661109c90919063ffffffff16565b90508260026000600381106108805761087f611627565b5b018190555081600260016003811061089b5761089a611627565b5b018190555080600280600381106108b5576108b4611627565b5b01819055508082846108c79190611485565b6108d19190611485565b856108dc91906115f3565b600280600381106108f0576108ef611627565b5b0160008282546109009190611485565b925050819055507f683ce02fea706086d81d4abf04f2b7c7049441eff85697967ce3338b1c143f9c8560405161093691906112b2565b60405180910390a160019350505050919050565b6002816003811061095a57600080fd5b016000915090505481565b600061096f61101e565b6000600554146109b4576040517f08c379a00000000000000000000000000000000000000000000000000000000081526004016109ab906117bb565b60405180910390fd5b7f000000000000000000000000000000000000000000000000000000000000000060046109e1919061142b565b7f0000000000000000000000000000000000000000000000000000000000000000610a0c9190611485565b4211610a4d576040517f08c379a0000000000000000000000000000000000000000000000000000000008152600401610a4490611827565b60405180910390fd5b60006002600060038110610a6457610a63611627565b5b015481610a719190611485565b90506002600160038110610a8857610a87611627565b5b015481610a959190611485565b905060028060038110610aab57610aaa611627565b5b015481610ab89190611485565b905060006002600060038110610ad157610ad0611627565b5b018190555060006002600160038110610aed57610aec611627565b5b0181905550600060028060038110610b0857610b07611627565b5b018190555060006001819055507f000000000000000000000000000000000000000000000000000000000000000073ffffffffffffffffffffffffffffffffffffffff1663a9059cbb33836040518363ffffffff1660e01b8152600401610b7092919061167f565b6020604051808303816000875af1158015610b8f573d6000803e3d6000fd5b505050506040513d601f19601f82011682018060405250810190610bb391906116d4565b507fd2360f4b880f618e152b3df8d8b05e4c23c6278e2b21abc9862815f744ec02fa81604051610be391906112b2565b60405180910390a1600191505090565b60015481565b610c0161101e565b610c0b60006110be565b565b7f000000000000000000000000000000000000000000000000000000000000000081565b60008060009054906101000a900473ffffffffffffffffffffffffffffffffffffffff16905090565b7f000000000000000000000000000000000000000000000000000000000000000081565b60007f00000000000000000000000000000000000000000000000000000000000000007f0000000000000000000000000000000000000000000000000000000000000000610ccc9190611485565b421115610d0e576040517f08c379a0000000000000000000000000000000000000000000000000000000008152600401610d0590611893565b60405180910390fd5b7f000000000000000000000000000000000000000000000000000000000000000073ffffffffffffffffffffffffffffffffffffffff166323b872dd3330856040518463ffffffff1660e01b8152600401610d6b93929190611738565b6020604051808303816000875af1158015610d8a573d6000803e3d6000fd5b505050506040513d601f19601f82011682018060405250810190610dae91906116d4565b5081600660003373ffffffffffffffffffffffffffffffffffffffff1673ffffffffffffffffffffffffffffffffffffffff1681526020019081526020016000206000828254610dfe9190611485565b925050819055508160056000828254610e179190611485565b925050819055507f59062170a285eb80e8c6b8ced60428442a51910635005233fc4ce084a475845e3383604051610e4f92919061167f565b60405180910390a160019050919050565b7f000000000000000000000000000000000000000000000000000000000000000081565b610e8c61101e565b600073ffffffffffffffffffffffffffffffffffffffff168173ffffffffffffffffffffffffffffffffffffffff1603610efb576040517f08c379a0000000000000000000000000000000000000000000000000000000008152600401610ef290611925565b60405180910390fd5b610f04816110be565b50565b60055481565b60066020528060005260406000206000915090505481565b610f2d6111ac565b610f356111ac565b6000610f3f6102ee565b90506000610f97600554600660008873ffffffffffffffffffffffffffffffffffffffff1673ffffffffffffffffffffffffffffffffffffffff1681526020019081526020016000205461118290919063ffffffff16565b905060005b60028160ff1611611012578260ff168160ff1611610fff57610fdf8260028360ff1660038110610fcf57610fce611627565b5b015461109c90919063ffffffff16565b848260ff1660038110610ff557610ff4611627565b5b6020020181815250505b808061100a90611656565b915050610f9c565b50829350505050919050565b6110266111a4565b73ffffffffffffffffffffffffffffffffffffffff16611044610c31565b73ffffffffffffffffffffffffffffffffffffffff161461109a576040517f08c379a000000000000000000000000000000000000000000000000000000000815260040161109190611991565b60405180910390fd5b565b6000606482846110ac919061142b565b6110b691906119e0565b905092915050565b60008060009054906101000a900473ffffffffffffffffffffffffffffffffffffffff169050816000806101000a81548173ffffffffffffffffffffffffffffffffffffffff021916908373ffffffffffffffffffffffffffffffffffffffff1602179055508173ffffffffffffffffffffffffffffffffffffffff168173ffffffffffffffffffffffffffffffffffffffff167f8be0079c531659141344cd1fd0a4f28419497f9722a3daafe3b4186f6b6457e060405160405180910390a35050565b600081606484611192919061142b565b61119c91906119e0565b905092915050565b600033905090565b6040518060600160405280600390602082028036833780820191505090505090565b600060ff82169050919050565b6111e4816111ce565b82525050565b60006020820190506111ff60008301846111db565b92915050565b60008115159050919050565b61121a81611205565b82525050565b60006020820190506112356000830184611211565b92915050565b600080fd5b6000819050919050565b61125381611240565b811461125e57600080fd5b50565b6000813590506112708161124a565b92915050565b60006020828403121561128c5761128b61123b565b5b600061129a84828501611261565b91505092915050565b6112ac81611240565b82525050565b60006020820190506112c760008301846112a3565b92915050565b600073ffffffffffffffffffffffffffffffffffffffff82169050919050565b6000819050919050565b600061131261130d611308846112cd565b6112ed565b6112cd565b9050919050565b6000611324826112f7565b9050919050565b600061133682611319565b9050919050565b6113468161132b565b82525050565b6000602082019050611361600083018461133d565b92915050565b6000611372826112cd565b9050919050565b61138281611367565b82525050565b600060208201905061139d6000830184611379565b92915050565b6113ac81611367565b81146113b757600080fd5b50565b6000813590506113c9816113a3565b92915050565b6000602082840312156113e5576113e461123b565b5b60006113f3848285016113ba565b91505092915050565b7f4e487b7100000000000000000000000000000000000000000000000000000000600052601160045260246000fd5b600061143682611240565b915061144183611240565b9250817fffffffffffffffffffffffffffffffffffffffffffffffffffffffffffffffff048311821515161561147a576114796113fc565b5b828202905092915050565b600061149082611240565b915061149b83611240565b9250827fffffffffffffffffffffffffffffffffffffffffffffffffffffffffffffffff038211156114d0576114cf6113fc565b5b828201905092915050565b600082825260208201905092915050565b7f526f756e6473206e6f7420796574207374617274656400000000000000000000600082015250565b60006115226016836114db565b915061152d826114ec565b602082019050919050565b6000602082019050818103600083015261155181611515565b9050919050565b7f4e487b7100000000000000000000000000000000000000000000000000000000600052602160045260246000fd5b7f576974686472617720706572696f6420686173206e6f74207374617274656400600082015250565b60006115bd601f836114db565b91506115c882611587565b602082019050919050565b600060208201905081810360008301526115ec816115b0565b9050919050565b60006115fe82611240565b915061160983611240565b92508282101561161c5761161b6113fc565b5b828203905092915050565b7f4e487b7100000000000000000000000000000000000000000000000000000000600052603260045260246000fd5b6000611661826111ce565b915060ff8203611674576116736113fc565b5b600182019050919050565b60006040820190506116946000830185611379565b6116a160208301846112a3565b9392505050565b6116b181611205565b81146116bc57600080fd5b50565b6000815190506116ce816116a8565b92915050565b6000602082840312156116ea576116e961123b565b5b60006116f8848285016116bf565b91505092915050565b60006060820190506117166000830186611379565b61172360208301856112a3565b61173060408301846112a3565b949350505050565b600060608201905061174d6000830186611379565b61175a6020830185611379565b61176760408301846112a3565b949350505050565b7f4465706f73697473206e6f7420656d7074790000000000000000000000000000600082015250565b60006117a56012836114db565b91506117b08261176f565b602082019050919050565b600060208201905081810360008301526117d481611798565b9050919050565b7f526f756e642033206e6f74207965742073746172746564000000000000000000600082015250565b60006118116017836114db565b915061181c826117db565b602082019050919050565b6000602082019050818103600083015261184081611804565b9050919050565b7f4465706f73697420706572696f642068617320656e6465640000000000000000600082015250565b600061187d6018836114db565b915061188882611847565b602082019050919050565b600060208201905081810360008301526118ac81611870565b9050919050565b7f4f776e61626c653a206e6577206f776e657220697320746865207a65726f206160008201527f6464726573730000000000000000000000000000000000000000000000000000602082015250565b600061190f6026836114db565b915061191a826118b3565b604082019050919050565b6000602082019050818103600083015261193e81611902565b9050919050565b7f4f776e61626c653a2063616c6c6572206973206e6f7420746865206f776e6572600082015250565b600061197b6020836114db565b915061198682611945565b602082019050919050565b600060208201905081810360008301526119aa8161196e565b9050919050565b7f4e487b7100000000000000000000000000000000000000000000000000000000600052601260045260246000fd5b60006119eb82611240565b91506119f683611240565b925082611a0657611a056119b1565b5b82820490509291505056fea264697066735822122021c3b37b063e4509ad7d1d14b4b5fae510c823bc56d06186c33797c13eece23964736f6c634300080f0033",
  "linkReferences": {},
  "deployedLinkReferences": {}
}