{
  "_format": "hh-sol-artifact-1",
  "contractName": "Bank",
  "sourceName": "contracts/Bank.sol",
  "abi": [
    {
      "inputs": [
        {
          "internalType": "uint256",
          "name": "_t",
          "type": "uint256"
        },
        {
          "internalType": "contract IERC20",
          "name": "_erc20Token",
          "type": "address"
        }
      ],
      "stateMutability": "nonpayable",
      "type": "constructor"
    },
    {
      "anonymous": false,
      "inputs": [
        {
          "indexed": false,
          "internalType": "address",
          "name": "sender",
          "type": "address"
        },
        {
          "indexed": false,
          "internalType": "uint256",
          "name": "value",
          "type": "uint256"
        }
      ],
      "name": "Deposit",
      "type": "event"
    },
    {
      "anonymous": false,
      "inputs": [
        {
          "indexed": true,
          "internalType": "address",
          "name": "previousOwner",
          "type": "address"
        },
        {
          "indexed": true,
          "internalType": "address",
          "name": "newOwner",
          "type": "address"
        }
      ],
      "name": "OwnershipTransferred",
      "type": "event"
    },
    {
      "anonymous": false,
      "inputs": [
        {
          "indexed": false,
          "internalType": "uint256",
          "name": "value",
          "type": "uint256"
        }
      ],
      "name": "RewardSupplied",
      "type": "event"
    },
    {
      "anonymous": false,
      "inputs": [
        {
          "indexed": false,
          "internalType": "address",
          "name": "sender",
          "type": "address"
        },
        {
          "indexed": false,
          "internalType": "uint256",
          "name": "value",
          "type": "uint256"
        },
        {
          "indexed": false,
          "internalType": "uint256",
          "name": "reward",
          "type": "uint256"
        }
      ],
      "name": "Withdrawal",
      "type": "event"
    },
    {
      "inputs": [
        {
          "internalType": "uint256",
          "name": "value",
          "type": "uint256"
        }
      ],
      "name": "deposit",
      "outputs": [
        {
          "internalType": "bool",
          "name": "",
          "type": "bool"
        }
      ],
      "stateMutability": "nonpayable",
      "type": "function"
    },
    {
      "inputs": [
        {
          "internalType": "address",
          "name": "",
          "type": "address"
        }
      ],
      "name": "deposits",
      "outputs": [
        {
          "internalType": "uint256",
          "name": "",
          "type": "uint256"
        }
      ],
      "stateMutability": "view",
      "type": "function"
    },
    {
      "inputs": [],
      "name": "erc20Token",
      "outputs": [
        {
          "internalType": "contract IERC20",
          "name": "",
          "type": "address"
        }
      ],
      "stateMutability": "view",
      "type": "function"
    },
    {
      "inputs": [],
      "name": "owner",
      "outputs": [
        {
          "internalType": "address",
          "name": "",
          "type": "address"
        }
      ],
      "stateMutability": "view",
      "type": "function"
    },
    {
      "inputs": [],
      "name": "renounceOwnership",
      "outputs": [],
      "stateMutability": "nonpayable",
      "type": "function"
    },
    {
      "inputs": [],
      "name": "rewardPool",
      "outputs": [
        {
          "internalType": "uint256",
          "name": "",
          "type": "uint256"
        }
      ],
      "stateMutability": "view",
      "type": "function"
    },
    {
      "inputs": [
        {
          "internalType": "uint256",
          "name": "",
          "type": "uint256"
        }
      ],
      "name": "rewardPools",
      "outputs": [
        {
          "internalType": "uint256",
          "name": "",
          "type": "uint256"
        }
      ],
      "stateMutability": "view",
      "type": "function"
    },
    {
      "inputs": [],
      "name": "round",
      "outputs": [
        {
          "internalType": "uint8",
          "name": "",
          "type": "uint8"
        }
      ],
      "stateMutability": "view",
      "type": "function"
    },
    {
      "inputs": [
        {
          "internalType": "uint256",
          "name": "value",
          "type": "uint256"
        }
      ],
      "name": "supplyReward",
      "outputs": [
        {
          "internalType": "bool",
          "name": "",
          "type": "bool"
        }
      ],
      "stateMutability": "nonpayable",
      "type": "function"
    },
    {
      "inputs": [],
      "name": "t",
      "outputs": [
        {
          "internalType": "uint256",
          "name": "",
          "type": "uint256"
        }
      ],
      "stateMutability": "view",
      "type": "function"
    },
    {
      "inputs": [],
      "name": "t0",
      "outputs": [
        {
          "internalType": "uint256",
          "name": "",
          "type": "uint256"
        }
      ],
      "stateMutability": "view",
      "type": "function"
    },
    {
      "inputs": [],
      "name": "totalDeposit",
      "outputs": [
        {
          "internalType": "uint256",
          "name": "",
          "type": "uint256"
        }
      ],
      "stateMutability": "view",
      "type": "function"
    },
    {
      "inputs": [
        {
          "internalType": "address",
          "name": "newOwner",
          "type": "address"
        }
      ],
      "name": "transferOwnership",
      "outputs": [],
      "stateMutability": "nonpayable",
      "type": "function"
    },
    {
      "inputs": [],
      "name": "withdraw",
      "outputs": [
        {
          "internalType": "bool",
          "name": "",
          "type": "bool"
        }
      ],
      "stateMutability": "nonpayable",
      "type": "function"
    }
  ],
  "bytecode": "0x60806040523480156200001157600080fd5b506040516200178c3803806200178c833981810160405281019062000037919062000233565b620000576200004b620000ae60201b60201c565b620000b660201b60201c565b80600160006101000a81548173ffffffffffffffffffffffffffffffffffffffff021916908373ffffffffffffffffffffffffffffffffffffffff160217905550426003819055508160028190555050506200027a565b600033905090565b60008060009054906101000a900473ffffffffffffffffffffffffffffffffffffffff169050816000806101000a81548173ffffffffffffffffffffffffffffffffffffffff021916908373ffffffffffffffffffffffffffffffffffffffff1602179055508173ffffffffffffffffffffffffffffffffffffffff168173ffffffffffffffffffffffffffffffffffffffff167f8be0079c531659141344cd1fd0a4f28419497f9722a3daafe3b4186f6b6457e060405160405180910390a35050565b600080fd5b6000819050919050565b62000194816200017f565b8114620001a057600080fd5b50565b600081519050620001b48162000189565b92915050565b600073ffffffffffffffffffffffffffffffffffffffff82169050919050565b6000620001e782620001ba565b9050919050565b6000620001fb82620001da565b9050919050565b6200020d81620001ee565b81146200021957600080fd5b50565b6000815190506200022d8162000202565b92915050565b600080604083850312156200024d576200024c6200017a565b5b60006200025d85828601620001a3565b925050602062000270858286016200021c565b9150509250929050565b611502806200028a6000396000f3fe608060405234801561001057600080fd5b50600436106100ea5760003560e01c80638da5cb5b1161008c578063c116690c11610066578063c116690c1461023d578063f2fde38b1461025b578063f6153ccd14610277578063fc7e286d14610295576100ea565b80638da5cb5b146101d157806392d0d153146101ef578063b6b55f251461020d576100ea565b806346abf391116100c857806346abf3911461015b57806366666aa91461018b578063715018a6146101a95780638a13eea7146101b3576100ea565b8063146ca531146100ef5780633ccfd60b1461010d5780633d97e2871461012b575b600080fd5b6100f76102c5565b6040516101049190610dac565b60405180910390f35b610115610384565b6040516101229190610de2565b60405180910390f35b61014560048036038101906101409190610e38565b61064b565b6040516101529190610de2565b60405180910390f35b61017560048036038101906101709190610e38565b610820565b6040516101829190610e74565b60405180910390f35b61019361083b565b6040516101a09190610e74565b60405180910390f35b6101b1610841565b005b6101bb610855565b6040516101c89190610f0e565b60405180910390f35b6101d961087b565b6040516101e69190610f4a565b60405180910390f35b6101f76108a4565b6040516102049190610e74565b60405180910390f35b61022760048036038101906102229190610e38565b6108aa565b6040516102349190610de2565b60405180910390f35b610245610a52565b6040516102529190610e74565b60405180910390f35b61027560048036038101906102709190610f91565b610a58565b005b61027f610adb565b60405161028c9190610e74565b60405180910390f35b6102af60048036038101906102aa9190610f91565b610ae1565b6040516102bc9190610e74565b60405180910390f35b600060025460026102d69190610fed565b6003546102e39190611047565b4211610324576040517f08c379a000000000000000000000000000000000000000000000000000000000815260040161031b906110fa565b60405180910390fd5b60025460046103339190610fed565b6003546103409190611047565b4211156103505760029050610381565b600254600361035f9190610fed565b60035461036c9190611047565b42111561037c5760019050610381565b600090505b90565b600060025460026103959190610fed565b6003546103a29190611047565b42116103e3576040517f08c379a00000000000000000000000000000000000000000000000000000000081526004016103da90611166565b60405180910390fd5b600080600960003373ffffffffffffffffffffffffffffffffffffffff1673ffffffffffffffffffffffffffffffffffffffff168152602001908152602001600020549050600061043333610af9565b90506000600960003373ffffffffffffffffffffffffffffffffffffffff1673ffffffffffffffffffffffffffffffffffffffff16815260200190815260200160002081905550816008600082825461048c9190611186565b9250508190555060005b60038160ff16101561055957818160ff16600381106104b8576104b76111ba565b5b6020020151600460008282546104ce9190611186565b92505081905550818160ff16600381106104eb576104ea6111ba565b5b6020020151846104fb9190611047565b9350818160ff1660038110610513576105126111ba565b5b602002015160058260ff166003811061052f5761052e6111ba565b5b01600082825461053f9190611186565b925050819055508080610551906111e9565b915050610496565b50600160009054906101000a900473ffffffffffffffffffffffffffffffffffffffff1673ffffffffffffffffffffffffffffffffffffffff1663a9059cbb3385856105a59190611047565b6040518363ffffffff1660e01b81526004016105c2929190611212565b6020604051808303816000875af11580156105e1573d6000803e3d6000fd5b505050506040513d601f19601f820116820180604052508101906106059190611267565b507fdf273cb619d95419a9cd0ec88123a0538c85064229baa6363788f743fff90deb33838560405161063993929190611294565b60405180910390a16001935050505090565b6000610655610be0565b600160009054906101000a900473ffffffffffffffffffffffffffffffffffffffff1673ffffffffffffffffffffffffffffffffffffffff166323b872dd3330856040518463ffffffff1660e01b81526004016106b4939291906112cb565b6020604051808303816000875af11580156106d3573d6000803e3d6000fd5b505050506040513d601f19601f820116820180604052508101906106f79190611267565b50816004600082825461070a9190611047565b92505081905550600061071e836014610c5e565b9050600061072d84601e610c5e565b9050600061073c856032610c5e565b9050826005600060038110610754576107536111ba565b5b018190555081600560016003811061076f5761076e6111ba565b5b018190555080600560026003811061078a576107896111ba565b5b018190555080828461079c9190611047565b6107a69190611047565b856107b19190611186565b60056002600381106107c6576107c56111ba565b5b0160008282546107d69190611047565b925050819055507f683ce02fea706086d81d4abf04f2b7c7049441eff85697967ce3338b1c143f9c8560405161080c9190610e74565b60405180910390a160019350505050919050565b6005816003811061083057600080fd5b016000915090505481565b60045481565b610849610be0565b6108536000610c80565b565b600160009054906101000a900473ffffffffffffffffffffffffffffffffffffffff1681565b60008060009054906101000a900473ffffffffffffffffffffffffffffffffffffffff16905090565b60025481565b60006002546003546108bc9190611047565b4211156108fe576040517f08c379a00000000000000000000000000000000000000000000000000000000081526004016108f59061134e565b60405180910390fd5b600160009054906101000a900473ffffffffffffffffffffffffffffffffffffffff1673ffffffffffffffffffffffffffffffffffffffff166323b872dd3330856040518463ffffffff1660e01b815260040161095d939291906112cb565b6020604051808303816000875af115801561097c573d6000803e3d6000fd5b505050506040513d601f19601f820116820180604052508101906109a09190611267565b5081600960003373ffffffffffffffffffffffffffffffffffffffff1673ffffffffffffffffffffffffffffffffffffffff16815260200190815260200160002060008282546109f09190611047565b925050819055508160086000828254610a099190611047565b925050819055507fe1fffcc4923d04b559f4d29a8bfc6cda04eb5b0d3c460751c2402c5c5cc9109c3383604051610a41929190611212565b60405180910390a160019050919050565b60035481565b610a60610be0565b600073ffffffffffffffffffffffffffffffffffffffff168173ffffffffffffffffffffffffffffffffffffffff1603610acf576040517f08c379a0000000000000000000000000000000000000000000000000000000008152600401610ac6906113e0565b60405180910390fd5b610ad881610c80565b50565b60085481565b60096020528060005260406000206000915090505481565b610b01610d6e565b610b09610d6e565b6000610b136102c5565b90506000610b62600960008773ffffffffffffffffffffffffffffffffffffffff1673ffffffffffffffffffffffffffffffffffffffff16815260200190815260200160002054600854610d44565b905060005b60028160ff1611610bd4578260ff168160ff1611610bc157610ba160058260ff1660038110610b9957610b986111ba565b5b015483610c5e565b848260ff1660038110610bb757610bb66111ba565b5b6020020181815250505b8080610bcc906111e9565b915050610b67565b50829350505050919050565b610be8610d66565b73ffffffffffffffffffffffffffffffffffffffff16610c0661087b565b73ffffffffffffffffffffffffffffffffffffffff1614610c5c576040517f08c379a0000000000000000000000000000000000000000000000000000000008152600401610c539061144c565b60405180910390fd5b565b600060648284610c6e9190610fed565b610c78919061149b565b905092915050565b60008060009054906101000a900473ffffffffffffffffffffffffffffffffffffffff169050816000806101000a81548173ffffffffffffffffffffffffffffffffffffffff021916908373ffffffffffffffffffffffffffffffffffffffff1602179055508173ffffffffffffffffffffffffffffffffffffffff168173ffffffffffffffffffffffffffffffffffffffff167f8be0079c531659141344cd1fd0a4f28419497f9722a3daafe3b4186f6b6457e060405160405180910390a35050565b600081606484610d549190610fed565b610d5e919061149b565b905092915050565b600033905090565b6040518060600160405280600390602082028036833780820191505090505090565b600060ff82169050919050565b610da681610d90565b82525050565b6000602082019050610dc16000830184610d9d565b92915050565b60008115159050919050565b610ddc81610dc7565b82525050565b6000602082019050610df76000830184610dd3565b92915050565b600080fd5b6000819050919050565b610e1581610e02565b8114610e2057600080fd5b50565b600081359050610e3281610e0c565b92915050565b600060208284031215610e4e57610e4d610dfd565b5b6000610e5c84828501610e23565b91505092915050565b610e6e81610e02565b82525050565b6000602082019050610e896000830184610e65565b92915050565b600073ffffffffffffffffffffffffffffffffffffffff82169050919050565b6000819050919050565b6000610ed4610ecf610eca84610e8f565b610eaf565b610e8f565b9050919050565b6000610ee682610eb9565b9050919050565b6000610ef882610edb565b9050919050565b610f0881610eed565b82525050565b6000602082019050610f236000830184610eff565b92915050565b6000610f3482610e8f565b9050919050565b610f4481610f29565b82525050565b6000602082019050610f5f6000830184610f3b565b92915050565b610f6e81610f29565b8114610f7957600080fd5b50565b600081359050610f8b81610f65565b92915050565b600060208284031215610fa757610fa6610dfd565b5b6000610fb584828501610f7c565b91505092915050565b7f4e487b7100000000000000000000000000000000000000000000000000000000600052601160045260246000fd5b6000610ff882610e02565b915061100383610e02565b9250817fffffffffffffffffffffffffffffffffffffffffffffffffffffffffffffffff048311821515161561103c5761103b610fbe565b5b828202905092915050565b600061105282610e02565b915061105d83610e02565b9250827fffffffffffffffffffffffffffffffffffffffffffffffffffffffffffffffff0382111561109257611091610fbe565b5b828201905092915050565b600082825260208201905092915050565b7f526f756e6473206e6f7420796574207374617274656400000000000000000000600082015250565b60006110e460168361109d565b91506110ef826110ae565b602082019050919050565b60006020820190508181036000830152611113816110d7565b9050919050565b7f576974686472617720706572696f6420686173206e6f74207374617274656400600082015250565b6000611150601f8361109d565b915061115b8261111a565b602082019050919050565b6000602082019050818103600083015261117f81611143565b9050919050565b600061119182610e02565b915061119c83610e02565b9250828210156111af576111ae610fbe565b5b828203905092915050565b7f4e487b7100000000000000000000000000000000000000000000000000000000600052603260045260246000fd5b60006111f482610d90565b915060ff820361120757611206610fbe565b5b600182019050919050565b60006040820190506112276000830185610f3b565b6112346020830184610e65565b9392505050565b61124481610dc7565b811461124f57600080fd5b50565b6000815190506112618161123b565b92915050565b60006020828403121561127d5761127c610dfd565b5b600061128b84828501611252565b91505092915050565b60006060820190506112a96000830186610f3b565b6112b66020830185610e65565b6112c36040830184610e65565b949350505050565b60006060820190506112e06000830186610f3b565b6112ed6020830185610f3b565b6112fa6040830184610e65565b949350505050565b7f4465706f73697420706572696f642068617320656e6465640000000000000000600082015250565b600061133860188361109d565b915061134382611302565b602082019050919050565b600060208201905081810360008301526113678161132b565b9050919050565b7f4f776e61626c653a206e6577206f776e657220697320746865207a65726f206160008201527f6464726573730000000000000000000000000000000000000000000000000000602082015250565b60006113ca60268361109d565b91506113d58261136e565b604082019050919050565b600060208201905081810360008301526113f9816113bd565b9050919050565b7f4f776e61626c653a2063616c6c6572206973206e6f7420746865206f776e6572600082015250565b600061143660208361109d565b915061144182611400565b602082019050919050565b6000602082019050818103600083015261146581611429565b9050919050565b7f4e487b7100000000000000000000000000000000000000000000000000000000600052601260045260246000fd5b60006114a682610e02565b91506114b183610e02565b9250826114c1576114c061146c565b5b82820490509291505056fea2646970667358221220667e7171b37fcdd98cb05664db3645fa8ca82d1c4e14ed5c019d2a7e025736e764736f6c634300080f0033",
  "linkReferences": {},
  "deployedLinkReferences": {}
}