{
  "_format": "hh-sol-artifact-1",
  "contractName": "Bank",
  "sourceName": "contracts/Bank.sol",
  "abi": [
    {
      "inputs": [
        {
          "internalType": "uint256",
          "name": "_t",
          "type": "uint256"
        },
        {
          "internalType": "contract IERC20",
          "name": "_erc20Token",
          "type": "address"
        }
      ],
      "stateMutability": "nonpayable",
      "type": "constructor"
    },
    {
      "anonymous": false,
      "inputs": [
        {
          "indexed": false,
          "internalType": "address",
          "name": "sender",
          "type": "address"
        },
        {
          "indexed": false,
          "internalType": "uint256",
          "name": "value",
          "type": "uint256"
        }
      ],
      "name": "Deposit",
      "type": "event"
    },
    {
      "anonymous": false,
      "inputs": [
        {
          "indexed": true,
          "internalType": "address",
          "name": "previousOwner",
          "type": "address"
        },
        {
          "indexed": true,
          "internalType": "address",
          "name": "newOwner",
          "type": "address"
        }
      ],
      "name": "OwnershipTransferred",
      "type": "event"
    },
    {
      "anonymous": false,
      "inputs": [
        {
          "indexed": false,
          "internalType": "uint256",
          "name": "value",
          "type": "uint256"
        }
      ],
      "name": "RewardSupplied",
      "type": "event"
    },
    {
      "anonymous": false,
      "inputs": [
        {
          "indexed": false,
          "internalType": "address",
          "name": "sender",
          "type": "address"
        },
        {
          "indexed": false,
          "internalType": "uint256",
          "name": "value",
          "type": "uint256"
        },
        {
          "indexed": false,
          "internalType": "uint256",
          "name": "reward",
          "type": "uint256"
        }
      ],
      "name": "Withdrawal",
      "type": "event"
    },
    {
      "inputs": [
        {
          "internalType": "uint256",
          "name": "value",
          "type": "uint256"
        }
      ],
      "name": "deposit",
      "outputs": [
        {
          "internalType": "bool",
          "name": "",
          "type": "bool"
        }
      ],
      "stateMutability": "nonpayable",
      "type": "function"
    },
    {
      "inputs": [
        {
          "internalType": "address",
          "name": "",
          "type": "address"
        }
      ],
      "name": "deposits",
      "outputs": [
        {
          "internalType": "uint256",
          "name": "",
          "type": "uint256"
        }
      ],
      "stateMutability": "view",
      "type": "function"
    },
    {
      "inputs": [],
      "name": "erc20Token",
      "outputs": [
        {
          "internalType": "contract IERC20",
          "name": "",
          "type": "address"
        }
      ],
      "stateMutability": "view",
      "type": "function"
    },
    {
      "inputs": [],
      "name": "owner",
      "outputs": [
        {
          "internalType": "address",
          "name": "",
          "type": "address"
        }
      ],
      "stateMutability": "view",
      "type": "function"
    },
    {
      "inputs": [],
      "name": "renounceOwnership",
      "outputs": [],
      "stateMutability": "nonpayable",
      "type": "function"
    },
    {
      "inputs": [],
      "name": "rewardPool",
      "outputs": [
        {
          "internalType": "uint256",
          "name": "",
          "type": "uint256"
        }
      ],
      "stateMutability": "view",
      "type": "function"
    },
    {
      "inputs": [
        {
          "internalType": "uint256",
          "name": "",
          "type": "uint256"
        }
      ],
      "name": "rewardPools",
      "outputs": [
        {
          "internalType": "uint256",
          "name": "",
          "type": "uint256"
        }
      ],
      "stateMutability": "view",
      "type": "function"
    },
    {
      "inputs": [],
      "name": "round",
      "outputs": [
        {
          "internalType": "uint8",
          "name": "",
          "type": "uint8"
        }
      ],
      "stateMutability": "view",
      "type": "function"
    },
    {
      "inputs": [
        {
          "internalType": "uint256",
          "name": "value",
          "type": "uint256"
        }
      ],
      "name": "supplyReward",
      "outputs": [
        {
          "internalType": "bool",
          "name": "",
          "type": "bool"
        }
      ],
      "stateMutability": "nonpayable",
      "type": "function"
    },
    {
      "inputs": [],
      "name": "t",
      "outputs": [
        {
          "internalType": "uint256",
          "name": "",
          "type": "uint256"
        }
      ],
      "stateMutability": "view",
      "type": "function"
    },
    {
      "inputs": [],
      "name": "t0",
      "outputs": [
        {
          "internalType": "uint256",
          "name": "",
          "type": "uint256"
        }
      ],
      "stateMutability": "view",
      "type": "function"
    },
    {
      "inputs": [],
      "name": "totalDeposit",
      "outputs": [
        {
          "internalType": "uint256",
          "name": "",
          "type": "uint256"
        }
      ],
      "stateMutability": "view",
      "type": "function"
    },
    {
      "inputs": [
        {
          "internalType": "address",
          "name": "newOwner",
          "type": "address"
        }
      ],
      "name": "transferOwnership",
      "outputs": [],
      "stateMutability": "nonpayable",
      "type": "function"
    },
    {
      "inputs": [],
      "name": "withdraw",
      "outputs": [
        {
          "internalType": "bool",
          "name": "",
          "type": "bool"
        }
      ],
      "stateMutability": "nonpayable",
      "type": "function"
    }
  ],
  "bytecode": "0x60806040523480156200001157600080fd5b5060405162001760380380620017608339818101604052810190620000379190620001a8565b620000576200004b620000ae60201b60201c565b620000b660201b60201c565b80600160006101000a81548173ffffffffffffffffffffffffffffffffffffffff021916908373ffffffffffffffffffffffffffffffffffffffff160217905550426003819055508160028190555050506200026f565b600033905090565b60008060009054906101000a900473ffffffffffffffffffffffffffffffffffffffff169050816000806101000a81548173ffffffffffffffffffffffffffffffffffffffff021916908373ffffffffffffffffffffffffffffffffffffffff1602179055508173ffffffffffffffffffffffffffffffffffffffff168173ffffffffffffffffffffffffffffffffffffffff167f8be0079c531659141344cd1fd0a4f28419497f9722a3daafe3b4186f6b6457e060405160405180910390a35050565b6000815190506200018b816200023b565b92915050565b600081519050620001a28162000255565b92915050565b60008060408385031215620001bc57600080fd5b6000620001cc8582860162000191565b9250506020620001df858286016200017a565b9150509250929050565b6000620001f68262000211565b9050919050565b60006200020a82620001e9565b9050919050565b600073ffffffffffffffffffffffffffffffffffffffff82169050919050565b6000819050919050565b6200024681620001fd565b81146200025257600080fd5b50565b620002608162000231565b81146200026c57600080fd5b50565b6114e1806200027f6000396000f3fe608060405234801561001057600080fd5b50600436106100ea5760003560e01c80638da5cb5b1161008c578063c116690c11610066578063c116690c1461023d578063f2fde38b1461025b578063f6153ccd14610277578063fc7e286d14610295576100ea565b80638da5cb5b146101d157806392d0d153146101ef578063b6b55f251461020d576100ea565b806346abf391116100c857806346abf3911461015b57806366666aa91461018b578063715018a6146101a95780638a13eea7146101b3576100ea565b8063146ca531146100ef5780633ccfd60b1461010d5780633d97e2871461012b575b600080fd5b6100f76102c5565b6040516101049190611131565b60405180910390f35b610115610384565b6040516101229190611040565b60405180910390f35b61014560048036038101906101409190610e6b565b6105aa565b6040516101529190611040565b60405180910390f35b61017560048036038101906101709190610e6b565b610826565b6040516101829190611116565b60405180910390f35b610193610841565b6040516101a09190611116565b60405180910390f35b6101b1610847565b005b6101bb61085b565b6040516101c8919061105b565b60405180910390f35b6101d9610881565b6040516101e69190610f8e565b60405180910390f35b6101f76108aa565b6040516102049190611116565b60405180910390f35b61022760048036038101906102229190610e6b565b6108b0565b6040516102349190611040565b60405180910390f35b610245610a67565b6040516102529190611116565b60405180910390f35b61027560048036038101906102709190610e19565b610a6d565b005b61027f610af1565b60405161028c9190611116565b60405180910390f35b6102af60048036038101906102aa9190610e19565b610af7565b6040516102bc9190611116565b60405180910390f35b600060025460026102d691906111e4565b6003546102e3919061115d565b4211610324576040517f08c379a000000000000000000000000000000000000000000000000000000000815260040161031b90611096565b60405180910390fd5b600254600461033391906111e4565b600354610340919061115d565b4211156103505760029050610381565b600254600361035f91906111e4565b60035461036c919061115d565b42111561037c5760019050610381565b600090505b90565b6000600254600261039591906111e4565b6003546103a2919061115d565b42116103e3576040517f08c379a00000000000000000000000000000000000000000000000000000000081526004016103da906110f6565b60405180910390fd5b6000600960003373ffffffffffffffffffffffffffffffffffffffff1673ffffffffffffffffffffffffffffffffffffffff168152602001908152602001600020549050600061043233610b0f565b90506000600960003373ffffffffffffffffffffffffffffffffffffffff1673ffffffffffffffffffffffffffffffffffffffff16815260200190815260200160002081905550816008600082825461048b919061123e565b9250508190555080600460008282546104a4919061123e565b92505081905550600160009054906101000a900473ffffffffffffffffffffffffffffffffffffffff1673ffffffffffffffffffffffffffffffffffffffff1663a9059cbb3383856104f6919061115d565b6040518363ffffffff1660e01b8152600401610513929190610fe0565b602060405180830381600087803b15801561052d57600080fd5b505af1158015610541573d6000803e3d6000fd5b505050506040513d601f19601f820116820180604052508101906105659190610e42565b507fdf273cb619d95419a9cd0ec88123a0538c85064229baa6363788f743fff90deb33838360405161059993929190611009565b60405180910390a160019250505090565b60006105b4610c4c565b600160009054906101000a900473ffffffffffffffffffffffffffffffffffffffff1673ffffffffffffffffffffffffffffffffffffffff166323b872dd3330856040518463ffffffff1660e01b815260040161061393929190610fa9565b602060405180830381600087803b15801561062d57600080fd5b505af1158015610641573d6000803e3d6000fd5b505050506040513d601f19601f820116820180604052508101906106659190610e42565b508160046000828254610678919061115d565b92505081905550600061068c836014610cca565b9050600061069b84601e610cca565b905060006106aa856032610cca565b90508260056000600381106106e8577f4e487b7100000000000000000000000000000000000000000000000000000000600052603260045260246000fd5b0181905550816005600160038110610729577f4e487b7100000000000000000000000000000000000000000000000000000000600052603260045260246000fd5b018190555080600560026003811061076a577f4e487b7100000000000000000000000000000000000000000000000000000000600052603260045260246000fd5b018190555080828461077c919061115d565b610786919061115d565b85610791919061123e565b60056002600381106107cc577f4e487b7100000000000000000000000000000000000000000000000000000000600052603260045260246000fd5b0160008282546107dc919061115d565b925050819055507f683ce02fea706086d81d4abf04f2b7c7049441eff85697967ce3338b1c143f9c856040516108129190611116565b60405180910390a160019350505050919050565b6005816003811061083657600080fd5b016000915090505481565b60045481565b61084f610c4c565b6108596000610cec565b565b600160009054906101000a900473ffffffffffffffffffffffffffffffffffffffff1681565b60008060009054906101000a900473ffffffffffffffffffffffffffffffffffffffff16905090565b60025481565b60006002546003546108c2919061115d565b421115610904576040517f08c379a00000000000000000000000000000000000000000000000000000000081526004016108fb906110b6565b60405180910390fd5b600160009054906101000a900473ffffffffffffffffffffffffffffffffffffffff1673ffffffffffffffffffffffffffffffffffffffff166323b872dd3330856040518463ffffffff1660e01b815260040161096393929190610fa9565b602060405180830381600087803b15801561097d57600080fd5b505af1158015610991573d6000803e3d6000fd5b505050506040513d601f19601f820116820180604052508101906109b59190610e42565b5081600960003373ffffffffffffffffffffffffffffffffffffffff1673ffffffffffffffffffffffffffffffffffffffff1681526020019081526020016000206000828254610a05919061115d565b925050819055508160086000828254610a1e919061115d565b925050819055507fe1fffcc4923d04b559f4d29a8bfc6cda04eb5b0d3c460751c2402c5c5cc9109c3383604051610a56929190610fe0565b60405180910390a160019050919050565b60035481565b610a75610c4c565b600073ffffffffffffffffffffffffffffffffffffffff168173ffffffffffffffffffffffffffffffffffffffff161415610ae5576040517f08c379a0000000000000000000000000000000000000000000000000000000008152600401610adc90611076565b60405180910390fd5b610aee81610cec565b50565b60085481565b60096020528060005260406000206000915090505481565b6000806000610b1c6102c5565b90506000610b6b600960008773ffffffffffffffffffffffffffffffffffffffff1673ffffffffffffffffffffffffffffffffffffffff16815260200190815260200160002054600854610db0565b905060005b8260ff168160ff1611610c40576000610bc760058360ff1660038110610bbf577f4e487b7100000000000000000000000000000000000000000000000000000000600052603260045260246000fd5b015484610cca565b90508060058360ff1660038110610c07577f4e487b7100000000000000000000000000000000000000000000000000000000600052603260045260246000fd5b016000828254610c17919061123e565b925050819055508085610c2a919061115d565b9450508080610c38906112eb565b915050610b70565b50829350505050919050565b610c54610dd2565b73ffffffffffffffffffffffffffffffffffffffff16610c72610881565b73ffffffffffffffffffffffffffffffffffffffff1614610cc8576040517f08c379a0000000000000000000000000000000000000000000000000000000008152600401610cbf906110d6565b60405180910390fd5b565b600060648284610cda91906111e4565b610ce491906111b3565b905092915050565b60008060009054906101000a900473ffffffffffffffffffffffffffffffffffffffff169050816000806101000a81548173ffffffffffffffffffffffffffffffffffffffff021916908373ffffffffffffffffffffffffffffffffffffffff1602179055508173ffffffffffffffffffffffffffffffffffffffff168173ffffffffffffffffffffffffffffffffffffffff167f8be0079c531659141344cd1fd0a4f28419497f9722a3daafe3b4186f6b6457e060405160405180910390a35050565b600081606484610dc091906111e4565b610dca91906111b3565b905092915050565b600033905090565b600081359050610de981611466565b92915050565b600081519050610dfe8161147d565b92915050565b600081359050610e1381611494565b92915050565b600060208284031215610e2b57600080fd5b6000610e3984828501610dda565b91505092915050565b600060208284031215610e5457600080fd5b6000610e6284828501610def565b91505092915050565b600060208284031215610e7d57600080fd5b6000610e8b84828501610e04565b91505092915050565b610e9d81611272565b82525050565b610eac81611284565b82525050565b610ebb816112c7565b82525050565b6000610ece60268361114c565b9150610ed982611373565b604082019050919050565b6000610ef160168361114c565b9150610efc826113c2565b602082019050919050565b6000610f1460188361114c565b9150610f1f826113eb565b602082019050919050565b6000610f3760208361114c565b9150610f4282611414565b602082019050919050565b6000610f5a601f8361114c565b9150610f658261143d565b602082019050919050565b610f79816112b0565b82525050565b610f88816112ba565b82525050565b6000602082019050610fa36000830184610e94565b92915050565b6000606082019050610fbe6000830186610e94565b610fcb6020830185610e94565b610fd86040830184610f70565b949350505050565b6000604082019050610ff56000830185610e94565b6110026020830184610f70565b9392505050565b600060608201905061101e6000830186610e94565b61102b6020830185610f70565b6110386040830184610f70565b949350505050565b60006020820190506110556000830184610ea3565b92915050565b60006020820190506110706000830184610eb2565b92915050565b6000602082019050818103600083015261108f81610ec1565b9050919050565b600060208201905081810360008301526110af81610ee4565b9050919050565b600060208201905081810360008301526110cf81610f07565b9050919050565b600060208201905081810360008301526110ef81610f2a565b9050919050565b6000602082019050818103600083015261110f81610f4d565b9050919050565b600060208201905061112b6000830184610f70565b92915050565b60006020820190506111466000830184610f7f565b92915050565b600082825260208201905092915050565b6000611168826112b0565b9150611173836112b0565b9250827fffffffffffffffffffffffffffffffffffffffffffffffffffffffffffffffff038211156111a8576111a7611315565b5b828201905092915050565b60006111be826112b0565b91506111c9836112b0565b9250826111d9576111d8611344565b5b828204905092915050565b60006111ef826112b0565b91506111fa836112b0565b9250817fffffffffffffffffffffffffffffffffffffffffffffffffffffffffffffffff048311821515161561123357611232611315565b5b828202905092915050565b6000611249826112b0565b9150611254836112b0565b92508282101561126757611266611315565b5b828203905092915050565b600061127d82611290565b9050919050565b60008115159050919050565b600073ffffffffffffffffffffffffffffffffffffffff82169050919050565b6000819050919050565b600060ff82169050919050565b60006112d2826112d9565b9050919050565b60006112e482611290565b9050919050565b60006112f6826112ba565b915060ff82141561130a57611309611315565b5b600182019050919050565b7f4e487b7100000000000000000000000000000000000000000000000000000000600052601160045260246000fd5b7f4e487b7100000000000000000000000000000000000000000000000000000000600052601260045260246000fd5b7f4f776e61626c653a206e6577206f776e657220697320746865207a65726f206160008201527f6464726573730000000000000000000000000000000000000000000000000000602082015250565b7f526f756e6473206e6f7420796574207374617274656400000000000000000000600082015250565b7f4465706f73697420706572696f642068617320656e6465640000000000000000600082015250565b7f4f776e61626c653a2063616c6c6572206973206e6f7420746865206f776e6572600082015250565b7f576974686472617720706572696f6420686173206e6f74207374617274656400600082015250565b61146f81611272565b811461147a57600080fd5b50565b61148681611284565b811461149157600080fd5b50565b61149d816112b0565b81146114a857600080fd5b5056fea26469706673582212206177b7161e9a39975be61cf734f4538072c6fc4a3620150ae9fc34c21db47a5c64736f6c63430008010033",
  "linkReferences": {},
  "deployedLinkReferences": {}
}