{
  "_format": "hh-sol-artifact-1",
  "contractName": "Bank",
  "sourceName": "contracts/Bank.sol",
  "abi": [
    {
      "inputs": [
        {
          "internalType": "uint256",
          "name": "_t",
          "type": "uint256"
        },
        {
          "internalType": "contract IERC20",
          "name": "_erc20Token",
          "type": "address"
        }
      ],
      "stateMutability": "nonpayable",
      "type": "constructor"
    },
    {
      "anonymous": false,
      "inputs": [
        {
          "indexed": true,
          "internalType": "address",
          "name": "previousOwner",
          "type": "address"
        },
        {
          "indexed": true,
          "internalType": "address",
          "name": "newOwner",
          "type": "address"
        }
      ],
      "name": "OwnershipTransferred",
      "type": "event"
    },
    {
      "anonymous": false,
      "inputs": [
        {
          "indexed": false,
          "internalType": "uint256",
          "name": "value",
          "type": "uint256"
        }
      ],
      "name": "PoolsEmptied",
      "type": "event"
    },
    {
      "anonymous": false,
      "inputs": [
        {
          "indexed": false,
          "internalType": "uint256",
          "name": "value",
          "type": "uint256"
        }
      ],
      "name": "RewardSupplied",
      "type": "event"
    },
    {
      "anonymous": false,
      "inputs": [
        {
          "indexed": false,
          "internalType": "address",
          "name": "sender",
          "type": "address"
        },
        {
          "indexed": false,
          "internalType": "uint256",
          "name": "value",
          "type": "uint256"
        }
      ],
      "name": "TokensDeposited",
      "type": "event"
    },
    {
      "anonymous": false,
      "inputs": [
        {
          "indexed": false,
          "internalType": "address",
          "name": "sender",
          "type": "address"
        },
        {
          "indexed": false,
          "internalType": "uint256",
          "name": "value",
          "type": "uint256"
        },
        {
          "indexed": false,
          "internalType": "uint256",
          "name": "reward",
          "type": "uint256"
        }
      ],
      "name": "TokensWithdrew",
      "type": "event"
    },
    {
      "inputs": [
        {
          "internalType": "uint256",
          "name": "value",
          "type": "uint256"
        }
      ],
      "name": "deposit",
      "outputs": [
        {
          "internalType": "bool",
          "name": "",
          "type": "bool"
        }
      ],
      "stateMutability": "nonpayable",
      "type": "function"
    },
    {
      "inputs": [
        {
          "internalType": "address",
          "name": "",
          "type": "address"
        }
      ],
      "name": "deposits",
      "outputs": [
        {
          "internalType": "uint256",
          "name": "",
          "type": "uint256"
        }
      ],
      "stateMutability": "view",
      "type": "function"
    },
    {
      "inputs": [],
      "name": "emptyPools",
      "outputs": [
        {
          "internalType": "bool",
          "name": "",
          "type": "bool"
        }
      ],
      "stateMutability": "nonpayable",
      "type": "function"
    },
    {
      "inputs": [],
      "name": "erc20Token",
      "outputs": [
        {
          "internalType": "contract IERC20",
          "name": "",
          "type": "address"
        }
      ],
      "stateMutability": "view",
      "type": "function"
    },
    {
      "inputs": [],
      "name": "owner",
      "outputs": [
        {
          "internalType": "address",
          "name": "",
          "type": "address"
        }
      ],
      "stateMutability": "view",
      "type": "function"
    },
    {
      "inputs": [],
      "name": "renounceOwnership",
      "outputs": [],
      "stateMutability": "nonpayable",
      "type": "function"
    },
    {
      "inputs": [],
      "name": "rewardPool",
      "outputs": [
        {
          "internalType": "uint256",
          "name": "",
          "type": "uint256"
        }
      ],
      "stateMutability": "view",
      "type": "function"
    },
    {
      "inputs": [
        {
          "internalType": "uint256",
          "name": "",
          "type": "uint256"
        }
      ],
      "name": "rewardPools",
      "outputs": [
        {
          "internalType": "uint256",
          "name": "",
          "type": "uint256"
        }
      ],
      "stateMutability": "view",
      "type": "function"
    },
    {
      "inputs": [],
      "name": "round",
      "outputs": [
        {
          "internalType": "uint8",
          "name": "",
          "type": "uint8"
        }
      ],
      "stateMutability": "view",
      "type": "function"
    },
    {
      "inputs": [
        {
          "internalType": "uint256",
          "name": "value",
          "type": "uint256"
        }
      ],
      "name": "supplyReward",
      "outputs": [
        {
          "internalType": "bool",
          "name": "",
          "type": "bool"
        }
      ],
      "stateMutability": "nonpayable",
      "type": "function"
    },
    {
      "inputs": [],
      "name": "t",
      "outputs": [
        {
          "internalType": "uint256",
          "name": "",
          "type": "uint256"
        }
      ],
      "stateMutability": "view",
      "type": "function"
    },
    {
      "inputs": [],
      "name": "t0",
      "outputs": [
        {
          "internalType": "uint256",
          "name": "",
          "type": "uint256"
        }
      ],
      "stateMutability": "view",
      "type": "function"
    },
    {
      "inputs": [],
      "name": "totalDeposit",
      "outputs": [
        {
          "internalType": "uint256",
          "name": "",
          "type": "uint256"
        }
      ],
      "stateMutability": "view",
      "type": "function"
    },
    {
      "inputs": [
        {
          "internalType": "address",
          "name": "newOwner",
          "type": "address"
        }
      ],
      "name": "transferOwnership",
      "outputs": [],
      "stateMutability": "nonpayable",
      "type": "function"
    },
    {
      "inputs": [],
      "name": "withdraw",
      "outputs": [
        {
          "internalType": "bool",
          "name": "",
          "type": "bool"
        }
      ],
      "stateMutability": "nonpayable",
      "type": "function"
    }
  ],
  "bytecode": "0x60e06040523480156200001157600080fd5b5060405162001d1b38038062001d1b833981810160405281019062000037919062000228565b620000576200004b620000a360201b60201c565b620000ab60201b60201c565b8073ffffffffffffffffffffffffffffffffffffffff1660808173ffffffffffffffffffffffffffffffffffffffff16815250504260c081815250508160a0818152505050506200026f565b600033905090565b60008060009054906101000a900473ffffffffffffffffffffffffffffffffffffffff169050816000806101000a81548173ffffffffffffffffffffffffffffffffffffffff021916908373ffffffffffffffffffffffffffffffffffffffff1602179055508173ffffffffffffffffffffffffffffffffffffffff168173ffffffffffffffffffffffffffffffffffffffff167f8be0079c531659141344cd1fd0a4f28419497f9722a3daafe3b4186f6b6457e060405160405180910390a35050565b600080fd5b6000819050919050565b620001898162000174565b81146200019557600080fd5b50565b600081519050620001a9816200017e565b92915050565b600073ffffffffffffffffffffffffffffffffffffffff82169050919050565b6000620001dc82620001af565b9050919050565b6000620001f082620001cf565b9050919050565b6200020281620001e3565b81146200020e57600080fd5b50565b6000815190506200022281620001f7565b92915050565b600080604083850312156200024257620002416200016f565b5b6000620002528582860162000198565b9250506020620002658582860162000211565b9150509250929050565b60805160a05160c051611a1a62000301600039600081816103230152818161039c015281816103f60152818161048e015281816109c801528181610c880152610e470152600081816102f3015281816104610152818161099b01528181610c410152610c670152600081816106710152818161076a01528181610afc01528181610bf40152610cf50152611a1a6000f3fe608060405234801561001057600080fd5b50600436106100f55760003560e01c80638a13eea711610097578063c116690c11610066578063c116690c14610266578063f2fde38b14610284578063f6153ccd146102a0578063fc7e286d146102be576100f5565b80638a13eea7146101dc5780638da5cb5b146101fa57806392d0d15314610218578063b6b55f2514610236576100f5565b806346abf391116100d357806346abf39114610166578063529838f31461019657806366666aa9146101b4578063715018a6146101d2576100f5565b8063146ca531146100fa5780633ccfd60b146101185780633d97e28714610136575b600080fd5b6101026102ee565b60405161010f91906111bd565b60405180910390f35b61012061045d565b60405161012d91906111f3565b60405180910390f35b610150600480360381019061014b9190611249565b61075e565b60405161015d91906111f3565b60405180910390f35b610180600480360381019061017b9190611249565b61092f565b60405161018d9190611285565b60405180910390f35b61019e61094a565b6040516101ab91906111f3565b60405180910390f35b6101bc610bd8565b6040516101c99190611285565b60405180910390f35b6101da610bde565b005b6101e4610bf2565b6040516101f1919061131f565b60405180910390f35b610202610c16565b60405161020f919061135b565b60405180910390f35b610220610c3f565b60405161022d9190611285565b60405180910390f35b610250600480360381019061024b9190611249565b610c63565b60405161025d91906111f3565b60405180910390f35b61026e610e45565b60405161027b9190611285565b60405180910390f35b61029e600480360381019061029991906113a2565b610e69565b005b6102a8610eec565b6040516102b59190611285565b60405180910390f35b6102d860048036038101906102d391906113a2565b610ef2565b6040516102e59190611285565b60405180910390f35b6000807f0000000000000000000000000000000000000000000000000000000000000000905080600261032191906113fe565b7f000000000000000000000000000000000000000000000000000000000000000061034c9190611458565b421161038d576040517f08c379a00000000000000000000000000000000000000000000000000000000081526004016103849061150b565b60405180910390fd5b80600461039a91906113fe565b7f00000000000000000000000000000000000000000000000000000000000000006103c59190611458565b4211156103e7576002808111156103df576103de61152b565b5b91505061045a565b8060036103f491906113fe565b7f000000000000000000000000000000000000000000000000000000000000000061041f9190611458565b421115610442576001600281111561043a5761043961152b565b5b91505061045a565b600060028111156104565761045561152b565b5b9150505b90565b60007f0000000000000000000000000000000000000000000000000000000000000000600261048c91906113fe565b7f00000000000000000000000000000000000000000000000000000000000000006104b79190611458565b42116104f8576040517f08c379a00000000000000000000000000000000000000000000000000000000081526004016104ef906115a6565b60405180910390fd5b600080600660003373ffffffffffffffffffffffffffffffffffffffff1673ffffffffffffffffffffffffffffffffffffffff168152602001908152602001600020549050600061054833610f0a565b90506000600660003373ffffffffffffffffffffffffffffffffffffffff1673ffffffffffffffffffffffffffffffffffffffff1681526020019081526020016000208190555081600560008282546105a191906115c6565b9250508190555060005b60038160ff16101561066e57818160ff16600381106105cd576105cc6115fa565b5b6020020151600160008282546105e391906115c6565b92505081905550818160ff1660038110610600576105ff6115fa565b5b6020020151846106109190611458565b9350818160ff1660038110610628576106276115fa565b5b602002015160028260ff1660038110610644576106436115fa565b5b01600082825461065491906115c6565b92505081905550808061066690611629565b9150506105ab565b507f000000000000000000000000000000000000000000000000000000000000000073ffffffffffffffffffffffffffffffffffffffff1663a9059cbb3385856106b89190611458565b6040518363ffffffff1660e01b81526004016106d5929190611652565b6020604051808303816000875af11580156106f4573d6000803e3d6000fd5b505050506040513d601f19601f8201168201806040525081019061071891906116a7565b507fbe950d70b1d347ee0119dc4202b5bca7157b4e7f8551399dae90bb88469916f533838560405161074c939291906116d4565b60405180910390a16001935050505090565b6000610768610ff1565b7f000000000000000000000000000000000000000000000000000000000000000073ffffffffffffffffffffffffffffffffffffffff166323b872dd3330856040518463ffffffff1660e01b81526004016107c59392919061170b565b6020604051808303816000875af11580156107e4573d6000803e3d6000fd5b505050506040513d601f19601f8201168201806040525081019061080891906116a7565b50816001600082825461081b9190611458565b92505081905550600061082f83601461106f565b9050600061083e84601e61106f565b9050600061084d85603261106f565b9050826002600060038110610865576108646115fa565b5b01819055508160026001600381106108805761087f6115fa565b5b0181905550806002806003811061089a576108996115fa565b5b01819055508082846108ac9190611458565b6108b69190611458565b856108c191906115c6565b600280600381106108d5576108d46115fa565b5b0160008282546108e59190611458565b925050819055507f683ce02fea706086d81d4abf04f2b7c7049441eff85697967ce3338b1c143f9c8560405161091b9190611285565b60405180910390a160019350505050919050565b6002816003811061093f57600080fd5b016000915090505481565b6000610954610ff1565b600060055414610999576040517f08c379a00000000000000000000000000000000000000000000000000000000081526004016109909061178e565b60405180910390fd5b7f000000000000000000000000000000000000000000000000000000000000000060046109c691906113fe565b7f00000000000000000000000000000000000000000000000000000000000000006109f19190611458565b4211610a32576040517f08c379a0000000000000000000000000000000000000000000000000000000008152600401610a29906117fa565b60405180910390fd5b60006002600060038110610a4957610a486115fa565b5b015481610a569190611458565b90506002600160038110610a6d57610a6c6115fa565b5b015481610a7a9190611458565b905060028060038110610a9057610a8f6115fa565b5b015481610a9d9190611458565b905060006002600060038110610ab657610ab56115fa565b5b018190555060006002600160038110610ad257610ad16115fa565b5b0181905550600060028060038110610aed57610aec6115fa565b5b018190555060006001819055507f000000000000000000000000000000000000000000000000000000000000000073ffffffffffffffffffffffffffffffffffffffff1663a9059cbb33836040518363ffffffff1660e01b8152600401610b55929190611652565b6020604051808303816000875af1158015610b74573d6000803e3d6000fd5b505050506040513d601f19601f82011682018060405250810190610b9891906116a7565b507fd2360f4b880f618e152b3df8d8b05e4c23c6278e2b21abc9862815f744ec02fa81604051610bc89190611285565b60405180910390a1600191505090565b60015481565b610be6610ff1565b610bf06000611091565b565b7f000000000000000000000000000000000000000000000000000000000000000081565b60008060009054906101000a900473ffffffffffffffffffffffffffffffffffffffff16905090565b7f000000000000000000000000000000000000000000000000000000000000000081565b60007f00000000000000000000000000000000000000000000000000000000000000007f0000000000000000000000000000000000000000000000000000000000000000610cb19190611458565b421115610cf3576040517f08c379a0000000000000000000000000000000000000000000000000000000008152600401610cea90611866565b60405180910390fd5b7f000000000000000000000000000000000000000000000000000000000000000073ffffffffffffffffffffffffffffffffffffffff166323b872dd3330856040518463ffffffff1660e01b8152600401610d509392919061170b565b6020604051808303816000875af1158015610d6f573d6000803e3d6000fd5b505050506040513d601f19601f82011682018060405250810190610d9391906116a7565b5081600660003373ffffffffffffffffffffffffffffffffffffffff1673ffffffffffffffffffffffffffffffffffffffff1681526020019081526020016000206000828254610de39190611458565b925050819055508160056000828254610dfc9190611458565b925050819055507f59062170a285eb80e8c6b8ced60428442a51910635005233fc4ce084a475845e3383604051610e34929190611652565b60405180910390a160019050919050565b7f000000000000000000000000000000000000000000000000000000000000000081565b610e71610ff1565b600073ffffffffffffffffffffffffffffffffffffffff168173ffffffffffffffffffffffffffffffffffffffff1603610ee0576040517f08c379a0000000000000000000000000000000000000000000000000000000008152600401610ed7906118f8565b60405180910390fd5b610ee981611091565b50565b60055481565b60066020528060005260406000206000915090505481565b610f1261117f565b610f1a61117f565b6000610f246102ee565b90506000610f73600660008773ffffffffffffffffffffffffffffffffffffffff1673ffffffffffffffffffffffffffffffffffffffff16815260200190815260200160002054600554611155565b905060005b60028160ff1611610fe5578260ff168160ff1611610fd257610fb260028260ff1660038110610faa57610fa96115fa565b5b01548361106f565b848260ff1660038110610fc857610fc76115fa565b5b6020020181815250505b8080610fdd90611629565b915050610f78565b50829350505050919050565b610ff9611177565b73ffffffffffffffffffffffffffffffffffffffff16611017610c16565b73ffffffffffffffffffffffffffffffffffffffff161461106d576040517f08c379a000000000000000000000000000000000000000000000000000000000815260040161106490611964565b60405180910390fd5b565b60006064828461107f91906113fe565b61108991906119b3565b905092915050565b60008060009054906101000a900473ffffffffffffffffffffffffffffffffffffffff169050816000806101000a81548173ffffffffffffffffffffffffffffffffffffffff021916908373ffffffffffffffffffffffffffffffffffffffff1602179055508173ffffffffffffffffffffffffffffffffffffffff168173ffffffffffffffffffffffffffffffffffffffff167f8be0079c531659141344cd1fd0a4f28419497f9722a3daafe3b4186f6b6457e060405160405180910390a35050565b60008160648461116591906113fe565b61116f91906119b3565b905092915050565b600033905090565b6040518060600160405280600390602082028036833780820191505090505090565b600060ff82169050919050565b6111b7816111a1565b82525050565b60006020820190506111d260008301846111ae565b92915050565b60008115159050919050565b6111ed816111d8565b82525050565b600060208201905061120860008301846111e4565b92915050565b600080fd5b6000819050919050565b61122681611213565b811461123157600080fd5b50565b6000813590506112438161121d565b92915050565b60006020828403121561125f5761125e61120e565b5b600061126d84828501611234565b91505092915050565b61127f81611213565b82525050565b600060208201905061129a6000830184611276565b92915050565b600073ffffffffffffffffffffffffffffffffffffffff82169050919050565b6000819050919050565b60006112e56112e06112db846112a0565b6112c0565b6112a0565b9050919050565b60006112f7826112ca565b9050919050565b6000611309826112ec565b9050919050565b611319816112fe565b82525050565b60006020820190506113346000830184611310565b92915050565b6000611345826112a0565b9050919050565b6113558161133a565b82525050565b6000602082019050611370600083018461134c565b92915050565b61137f8161133a565b811461138a57600080fd5b50565b60008135905061139c81611376565b92915050565b6000602082840312156113b8576113b761120e565b5b60006113c68482850161138d565b91505092915050565b7f4e487b7100000000000000000000000000000000000000000000000000000000600052601160045260246000fd5b600061140982611213565b915061141483611213565b9250817fffffffffffffffffffffffffffffffffffffffffffffffffffffffffffffffff048311821515161561144d5761144c6113cf565b5b828202905092915050565b600061146382611213565b915061146e83611213565b9250827fffffffffffffffffffffffffffffffffffffffffffffffffffffffffffffffff038211156114a3576114a26113cf565b5b828201905092915050565b600082825260208201905092915050565b7f526f756e6473206e6f7420796574207374617274656400000000000000000000600082015250565b60006114f56016836114ae565b9150611500826114bf565b602082019050919050565b60006020820190508181036000830152611524816114e8565b9050919050565b7f4e487b7100000000000000000000000000000000000000000000000000000000600052602160045260246000fd5b7f576974686472617720706572696f6420686173206e6f74207374617274656400600082015250565b6000611590601f836114ae565b915061159b8261155a565b602082019050919050565b600060208201905081810360008301526115bf81611583565b9050919050565b60006115d182611213565b91506115dc83611213565b9250828210156115ef576115ee6113cf565b5b828203905092915050565b7f4e487b7100000000000000000000000000000000000000000000000000000000600052603260045260246000fd5b6000611634826111a1565b915060ff8203611647576116466113cf565b5b600182019050919050565b6000604082019050611667600083018561134c565b6116746020830184611276565b9392505050565b611684816111d8565b811461168f57600080fd5b50565b6000815190506116a18161167b565b92915050565b6000602082840312156116bd576116bc61120e565b5b60006116cb84828501611692565b91505092915050565b60006060820190506116e9600083018661134c565b6116f66020830185611276565b6117036040830184611276565b949350505050565b6000606082019050611720600083018661134c565b61172d602083018561134c565b61173a6040830184611276565b949350505050565b7f4465706f73697473206e6f7420656d7074790000000000000000000000000000600082015250565b60006117786012836114ae565b915061178382611742565b602082019050919050565b600060208201905081810360008301526117a78161176b565b9050919050565b7f526f756e642033206e6f74207965742073746172746564000000000000000000600082015250565b60006117e46017836114ae565b91506117ef826117ae565b602082019050919050565b60006020820190508181036000830152611813816117d7565b9050919050565b7f4465706f73697420706572696f642068617320656e6465640000000000000000600082015250565b60006118506018836114ae565b915061185b8261181a565b602082019050919050565b6000602082019050818103600083015261187f81611843565b9050919050565b7f4f776e61626c653a206e6577206f776e657220697320746865207a65726f206160008201527f6464726573730000000000000000000000000000000000000000000000000000602082015250565b60006118e26026836114ae565b91506118ed82611886565b604082019050919050565b60006020820190508181036000830152611911816118d5565b9050919050565b7f4f776e61626c653a2063616c6c6572206973206e6f7420746865206f776e6572600082015250565b600061194e6020836114ae565b915061195982611918565b602082019050919050565b6000602082019050818103600083015261197d81611941565b9050919050565b7f4e487b7100000000000000000000000000000000000000000000000000000000600052601260045260246000fd5b60006119be82611213565b91506119c983611213565b9250826119d9576119d8611984565b5b82820490509291505056fea264697066735822122068a8132213832c1efd3fe4c27ab7585d8583e067b8f750ff4b542e99a2683d2a64736f6c634300080f0033",
  "linkReferences": {},
  "deployedLinkReferences": {}
}